:040000000C944F000D
:100004000C9400000C9400000C9400000C9400006C
:100014000C9400000C9400000C9400000C9400005C
:100024000C9400000C9400000C9400000C9400004C
:100034000C9400000C9400000C9400000C9400003C
:100044000C9400000C9400000C9400000C9400002C
:10005400000000000000000010101010101010002C
:1000640018181818181818181E1E1E1E1E1E1E1EDC
:100074001F1F1F1F1F1F1F1F0F0F0F0F0F0F0F0F0C
:10008400070707070707070701010101010101012C
:1000940080C00200600194000000F894EE27ECBBDD
:1000A400F1E0FBBFEBBFE5BF8DE0A2E0BB27ED9322
:1000B4008A95E9F780E094E0A0E6ED930197E9F7EB
:1000C400E6E9F0E085919591009761F0A591B591ED
:1000D40005901590BF01F00105900D920197E1F78D
:1000E400FB01F0CFEFE5EDBFE4E0EEBFC0E6D1E009
:1000F4000C949800AA931A930A93EA81EE0FEE0FD8
:10010400EE0FE0640E2F10E0183060F40A930395AC
:10011400EC81FD813196EC83FD833197A491CFD09E
:100124001F5FF2CF1981088125960895EFE0EABB9D
:10013400E0E7EBBBE0E0E7BBE8BBE4BBE5BBE1BB6E
:10014400E2BBE3BFE2BFECBFEFBDEEBDEDBDECBD76
:10015400E7BDE6BDEBBDEABDE9BDE8BDE2BDE5BD79
:10016400E4BDE3BDE9BFE5BFE4BFEAB9E0E8E8B94F
:10017400E0E0E0BFE6B9EDB9E6BFA4E1D5D0E4E53F
:10018400F0E0FA93EA93A0E0B5DFECE5F0E0FA934F
:10019400EA93A1E0AFDFE4E6F0E0FA93EA93A2E0A9
:1001A400A9DFECE6F0E0FA93EA93A3E0A3DFE4E747
:1001B400F0E0FA93EA93A4E09DDFECE7F0E0FA9331
:1001C400EA93A5E097DFE4E8F0E0FA93EA93A6E087
:1001D40091DFECE8F0E0FA93EA93A7E08BDFE3E148
:1001E400F0E03F0188249924EAE0F0E08E169F06AF
:1001F400CCF4E7E0F0E05F01E1E0F0E02F01E5E0BE
:10020400F0E04E165F063CF4BBD031975F01F2017B
:1002140031962F01F4CFF30131973F01F401319668
:100224004F01E2CFA2E3B0E00E94E801EAE0F0E08F
:100234003F01E9E0F0E04F01EFEFFFEFE815F905CA
:10024400BCF4E4E0F0E05F012F01EFEFFFEFE41511
:10025400F5053CF495D031965F01F20131972F01F9
:10026400F4CFF30131963F01F40131974F01E4CF0C
:100274003BD0A4E6B0E00E94E801B4CFFFCFAA933C
:10028400EBB3EF70AE2FE881E07FEA2BEBBB8DE0A0
:100294008A95F1F7DA9A8DE08A95F1F7DA988DE08C
:1002A4008A95F1F76BC0AA93A881E9DFE881E2950A
:1002B400E883A881E4DF85E88A95F1F75FC0AA9313
:1002C400A981F1DFD89AA881EEDFD8980BC0AA9350
:1002D400E881F0E0E05AFE4FE081A981AE0FE3DF50
:1002E400D980C88022960895A2E064D0ACE0DBDF18
:1002F400A1E060D0E0E0CE2EDE2E0895AA93A8817E
:10030400AA3021F0E0916401DE1640F0E0E0EA93C7
:10031400C394AC2DDCDFA881AA3081F1D394D89AA0
:10032400A881C1DFD8982AC0AA93EAB3E06FEABBD8
:10033400D29AD09AD19ADA98D898D998E881E09349
:100344006401E058E0936201E881E054E0936301C2
:10035400A4E1B0E00E94E80132D031D030D0A0E274
:100364008EDF88EC90E00197F1F7A8E29CDFA4E02F
:100374009ADFA5E898DFA6E096DFB6DF2196089518
:100384008A92A0E0A4DFA42DB9DF8A92A1E09FDFC6
:10039400A42DB4DF6A92A0E09ADFAA2DAFDF6A929F
:1003A400A1E095DFAA2DAADFA9E1B0E00E94E8014F
:1003B400F501089578DFA3E0B0E00C94E801A0E330
:1003C4005EDF88EC90E00197F1F70895109639F01C
:1003D40080ED97E00197F1F7A8951197C9F7089573
:00000001FF
