:0C0000000C944F000C9400000C940000C5
:10000C000C9400000C9400000C9400000C94000064
:10001C000C9400000C9400000C9400000C94000054
:10002C000C9400000C9400000C9400000C94000044
:10003C000C9400000C9400000C9400000C94000034
:10004C000C9400000C9400001F0000000000000045
:10005C0001010101010101010000000000001F1F4E
:10006C00101010101010101000001F0000000000E5
:10007C00040404040404040400000000001F000035
:10008C00080808080808080880C0020060019400ED
:10009C000000F894EE27ECBBF1E0FBBFEBBFE5BF33
:1000AC008DE0A2E0BB27ED938A95E9F780E094E020
:1000BC00A0E6ED930197E9F7E6E9F0E085919591DB
:1000CC00009761F0A591B59105901590BF01F001D5
:1000DC0005900D920197E1F7FB01F0CFEFE5EDBF35
:1000EC00E4E0EEBFC0E6D1E00C949800AA931A931A
:1000FC000A93EA81EE0FEE0FEE0FE0640E2F10E084
:10010C00183060F40A930395EC81FD813196EC83F1
:10011C00FD833197A491B8D01F5FF2CF198108816C
:10012C0025960895EFE0EABBE0E7EBBBE0E0E7BB28
:10013C00E8BBE4BBE5BBE1BBE2BBE3BFE2BFECBFAA
:10014C00EFBDEEBDEDBDECBDE7BDE6BDEBBDEABD63
:10015C00E9BDE8BDE2BDE5BDE4BDE3BDE9BFE5BF7A
:10016C00E4BFEAB9E0E8E8B9E0E0E0BFE6B9EDB930
:10017C00E6BFA4E1BED0E4E5F0E0FA93EA93A0E098
:10018C00B5DFECE5F0E0FA93EA93A1E0AFDFE4E64B
:10019C00F0E0FA93EA93A2E0A9DFECE6F0E0FA9340
:1001AC00EA93A3E0A3DFE4E7F0E0FA93EA93A4E098
:1001BC009DDFECE7F0E0FA93EA93A5E097DFE4E843
:1001CC00F0E0FA93EA93A6E091DFECE8F0E0FA9322
:1001DC00EA93A7E08BDFE1E0F0E04F01E3E1F0E030
:1001EC008E169F064CF48A92A0E056D0A0E0ADD0BB
:1001FC00F40131964F01F2CFE3E1EA93A0E04CD049
:10020C00A1E0A3D0E3E1EA93A1E046D0A1E05BD06A
:10021C00E2E1F0E04F010024081409044CF48A9246
:10022C00A1E03AD0A2E091D0F40131974F01F3CF85
:10023C00E0E0EA93A1E030D0A3E087D0E0E0EA93DD
:10024C00A0E02AD0C8CFFFCFAA93EBB3EF70AE2FAC
:10025C00E881E07FEA2BEBBB8DE08A95F1F7DA9A27
:10026C008DE08A95F1F7DA988DE08A95F1F76BC0FD
:10027C00AA93A881E9DFE881E295E883A881E4DF0D
:10028C0085E88A95F1F75FC0AA93A981F1DFD89A26
:10029C00A881EEDFD8980BC0AA93E881F0E0E05A71
:1002AC00FE4FE081A981AE0FE3DFD980C880229692
:1002BC000895A2E04FD0ACE0DBDFA1E04BD0E0E052
:1002CC00CE2EDE2E0895AA93A881AA3021F0E091BB
:1002DC006401DE1640F0E0E0EA93C394AC2DDCDF61
:1002EC00A881AA3081F1D394D89AA881C1DFD8987B
:1002FC002AC0AA93EAB3E06FEABBD29AD09AD19AF9
:10030C00DA98D898D998E881E0936401E058E093A2
:10031C006201E881E054E0936301A4E1B0E00E9443
:10032C00BC011DD01CD01BD0A0E28EDF88EC90E06D
:10033C000197F1F7A8E29CDFA4E09ADFA5E898DF2B
:10034C00A6E096DFB6DF21960895BDDFA2E3B0E00C
:10035C000C94BC018DDFA3E0B0E00C94BC01A0E3D5
:10036C0073DF88EC90E00197F1F70895109639F05F
:10037C0080ED97E00197F1F7A8951197C9F70895CB
:00000001FF
