:0A0000000C9493000C9400000C9483
:10000A0000000C9400000C9400000C9400000C9466
:10001A0000000C9400000C9400000C9400000C9456
:10002A0000000C9400000C9400000C9400000C9446
:10003A0000000C9400000C9400000C9400000C9436
:10004A0000000C9400000C94000010101010101006
:10005A0010101F101010101010101F0000000000C8
:10006A0000001F010101010101010101010101015A
:10007A001F000000000000001F00101010101010D8
:10008A001F001F1F1F1C1C1C1C1C1F1F1F00000001
:10009A0000001F1F1F0707070707070707071F1F7C
:1000AA001F00000000001F1F1F001C1C1C1C1F1F1C
:1000BA001F001F1F1F1F1F1E1E1E1F1F1F1F1F0087
:1000CA0000001F1F1F1F1F0F0F0F0F0F1F1F1F1FC4
:1000DA001F0000001F1F1F1F1F001E1E1F1F1F1FA4
:1000EA001F001F1F1F1F1F1F1F1F1F1F1F1F1F1F35
:1000FA001F1F1F1F1F1F1F1F1F1F1F1F1F1F1F1F06
:10010A001F001F1F1F1F1F1F1F001F1F1F1F1F1F33
:10011A001F0080C0020060011C010000F894EE2755
:10012A00ECBBF1E0FBBFEBBFE5BF8DE0A2E0BB2774
:10013A00ED938A95E9F780E094E0A0E6ED930197C4
:10014A00E9F7EEE1F1E085919591009761F0A591CB
:10015A00B59105901590BF01F00105900D92019798
:10016A00E1F7FB01F0CFEFE5EDBFE4E0EEBFC0E65B
:10017A00D1E00C94DC00AA931A930A93EA81EE0F59
:10018A00EE0FEE0FE0640E2F10E0183060F40A93C1
:10019A000395EC81FD813196EC83FD833197A4911F
:1001AA0027D11F5FF2CF1981088125960895EFE0C4
:1001BA00EABBE0E7EBBBE0E0E7BBE8BBE4BBE5BBDF
:1001CA00E1BBE2BBE3BFE2BFECBFEFBDEEBDEDBDFD
:1001DA00ECBDE7BDE6BDEBBDEABDE9BDE8BDE2BDEC
:1001EA00E5BDE4BDE3BDE9BFE5BFE4BFEAB9E0E8C8
:1001FA00E8B9E0E0E0BFE6B9EDB9E6BFA4E12DD188
:10020A00E4E5F0E0FA93EA93A0E0B5DFECE5F0E08C
:10021A0050D1E4E6F0E052D1ECE6F0E054D1E4E764
:10022A00F0E056D1ECE7F0E058D1E4E8F0E05AD13A
:10023A005ED1A0E060D164D1E1E0F0E02F0166D1A7
:10024A002CF069D1F20131962F01F9CF69D1A3E0DF
:10025A0052D16AD1A4E04FD1E2E1F0E02F0168D196
:10026A002CF06BD1F20131972F01F9CF40D1A6E0E2
:10027A0042D1ECE8F0E01DD143D1E1E0F0E02F01FA
:10028A0045D144F0E4E9F0E019D145D1F2013196C3
:10029A002F01F6CF45D1ECE9F0E015D1A3E02BD13F
:1002AA0043D1E4EAF0E014D1A4E025D1E2E1F0E0A0
:1002BA002F013ED144F0ECEAF0E00FD13ED1F20139
:1002CA0031972F01F6CF13D1E4EBF0E00BD1A6E082
:1002DA0012D1ECEBF0E0EDD013D1E1E0F0E02F0128
:1002EA0015D144F0E4ECF0E0E9D015D1F2013196F1
:1002FA002F01F6CF15D1ECECF0E0E5D0A3E0FBD06E
:10030A0013D1E4EDF0E0E4D0A4E0F5D0E2E1F0E0CE
:10031A002F010ED144F0ECEDF0E0DFD00ED1F20166
:10032A0031972F01F6CFE3D0E4EEF0E0DBD0A6E080
:10033A00E2D0E0E0EA93A0E063D0ECEEF0E0B9D0DE
:10034A00A1E0D9D0E1E0F0E02F01E0D044F0E4EF01
:10035A00F0E0B4D0E0D0F20131962F01F6CFE0D030
:10036A00ECEFF0E0B0D0A3E0C6D0DED0E4E0F1E0FC
:10037A00AFD0A4E0C0D0E2E1F0E02F01D9D044F040
:10038A00ECE0F1E0AAD0D9D0F20131972F01F6CFF3
:10039A00AED0E4E1F1E0A6D0A6E0ADD0ECEEF0E01C
:1003AA0088D0AED0A2E3B0E00E94B302FBCFFFCF69
:1003BA00AA93EBB3EF70AE2FE881E07FEA2BEBBB99
:1003CA008DE08A95F1F7DA9A8DE08A95F1F7DA9855
:1003DA008DE08A95F1F76BC0AA93A881E9DFE881DD
:1003EA00E295E883A881E4DF85E88A95F1F75FC0A2
:1003FA00AA93A981F1DFD89AA881EEDFD8980BC019
:10040A00AA93E881F0E0E05AFE4FE081A981AE0F9D
:10041A00E3DFD980C88022960895A2E093D0ACE0A9
:10042A00DBDFA1E08FD0E0E0CE2EDE2E0895AA9386
:10043A00A881AA3021F0E0916401DE1640F0E0E0E4
:10044A00EA93C394AC2DDCDFA881AA3081F1D3945E
:10045A00D89AA881C1DFD8982AC0AA93EAB3E06FD4
:10046A00EABBD29AD09AD19ADA98D898D998E881E0
:10047A00E0936401E058E0936201E881E054E0937C
:10048A006301A4E1B0E00E94B30261D060D05FD002
:10049A00A0E28EDF88EC90E00197F1F7A8E29CDFFA
:1004AA00A4E09ADFA5E898DFA6E096DFB6DF2196FA
:1004BA000895FA93EA93A1E00C94C000FA93EA93A0
:1004CA00A2E00C94C000FA93EA93A3E00C94C00053
:1004DA00FA93EA93A4E00C94C000FA93EA93A5E095
:1004EA000C94C000FA93EA93A6E00C94C000E0E0F2
:1004FA00EA93A1E085CF9BDFA9E1B0E00C94B302B7
:10050A00E0E0EA93A0E07CDFA1E0F5CFE2E1F0E0F1
:10051A00E415F50508954A92A0E072DFA2E0EBCF58
:10052A00E3E1EA93A0E06CCFE3E1EA93A1E068CFCC
:10053A00E1E0F0E04E165F0608954A92A1E060DF1E
:10054A00A5E0D9CF49DFA3E0B0E00C94B302A0E361
:10055A002FDF88EC90E00197F1F70895109639F0B3
:10056A0080ED97E00197F1F7A8951197C9F70895DB
:00000001FF
