:020000000C945E
:100002003B000C9400000C9400000C9400000C9433
:1000120000000C9400000C9400000C9400000C945E
:1000220000000C9400000C9400000C9400000C944E
:1000320000000C9400000C9400000C9400000C943E
:1000420000000C9400000C9400000C9400000C942E
:100052000000310032003300340035003600370032
:10006200380039002A003000230080C002006001FD
:100072006C000000F894EE27ECBBF1E0FBBFEBBF95
:10008200E5BF8DE0A2E0BB27ED938A95E9F780E01A
:1000920094E0A0E6ED930197E9F7EEE6F0E08591B2
:1000A2009591009761F0A591B59105901590BF01CA
:1000B200F00105900D920197E1F7FB01F0CFEFE51A
:1000C200EDBFE4E0EEBFC0E6D1E00C946800E0E0F2
:1000D200EABBEBBBEFE0E7BBE0E7E8BBE0E0E4BB99
:1000E200E5BBE1BBE2BBE3BFE2BFECBFEFBDEEBDF0
:1000F200EDBDECBDE7BDE6BDEBBDEABDE9BDE8BDCA
:10010200E2BDE5BDE4BDE3BDE9BFE5BFE4BFEAB9D9
:10011200E0E8E8B9E0E0E0BFE6B9EDB9E6BFA4E1A6
:10012200F5D0C098C19AC29AC39AB49904C0B59B3B
:1001320002C0B69901C004C014D1A4E5B0E015D143
:10014200B49B04C0B59902C0B69901C004C009D1DC
:10015200A6E5B0E00AD1B49B04C0B59B02C0B69B31
:1001620001C004C0FED0A8E5B0E0FFD0C09AC1989B
:10017200C29AC39AB49904C0B59B02C0B69901C091
:1001820004C0EFD0AAE5B0E0F0D0B49B04C0B599AA
:1001920002C0B69901C004C0E4D0ACE5B0E0E5D03D
:1001A200B49B04C0B59B02C0B69B01C004C0D9D0A9
:1001B200AEE5B0E0DAD0C09AC19AC298C39AB499B7
:1001C20004C0B59B02C0B69901C004C0CAD0A0E663
:1001D200B0E0CBD0B49B04C0B59902C0B69901C0BF
:1001E20004C0BFD0A2E6B0E0C0D0B49B04C0B59BAF
:1001F20002C0B69B01C004C0B4D0A4E6B0E0B5D042
:10020200C09AC19AC29AC398B49904C0B59B02C05D
:10021200B69901C004C0A5D0A6E6B0E0A6D0B49BB2
:1002220004C0B59902C0B69901C004C09AD0A8E62C
:10023200B0E09BD0B49B04C0B59B02C0B69B01C08A
:1002420004C08FD0AAE6B0E090D06BCFFFCFAA93C4
:10025200EBB3EF70AE2FE881E07FEA2BEBBB8DE0D2
:100262008A95F1F7DA9A8DE08A95F1F7DA988DE0BE
:100272008A95F1F774C0AA93A881E9DFE881E29533
:10028200E883A881E4DF85E88A95F1F768C0AA933C
:10029200E881F0E0E05AFE4FE081A981AE0FEBDF8A
:1002A2005980488022960895A2E064D0ACE0E3DF52
:1002B200A1E060D0E0E04E2E5E2E0895AA93A881C0
:1002C200AA3011F0571448F0E0E0EA934394A42DC9
:1002D200DEDFA881AA3009F442C05394D89AA881DB
:1002E200CADFD8983CC0BA93AA931A93E981FA81DB
:1002F2003196E983FA833197E4911E2FE03019F0A9
:10030200A12FDCDFF3CF188123960895AA93EAB3D5
:10031200E06FEABBD29AD09AD19ADA98D898D99853
:100322007880E881E058E0936201E881E054E0934C
:100332006301A4E1B0E00E94C70121D020D01FD008
:10034200A0E285DF88EC90E00197F1F7A8E293DF65
:10035200A4E091DFA5E88FDFA6E08DDFA5DF21967F
:100362000895E0E0EA93A0E092CFBDDFA2E3B0E01F
:100372000C94C70180DFA3E0B0E00C94C701A0E3B6
:1003820066DF88EC90E00197F1F70895109639F056
:1003920080ED97E00197F1F7A8951197C9F70895B5
:00000001FF
