:080000000C9431000C94000087
:100008000C9400000C9400000C9400000C94000068
:100018000C9400000C9400000C9400000C94000058
:100028000C9400000C9400000C9400000C94000048
:100038000C9400000C9400000C9400000C94000038
:100048000C9400000C9400000C940000682E7000C2
:1000580080C00200600158000000F894EE27ECBB55
:10006800F1E0FBBFEBBFE5BF8DE0A2E0BB27ED935E
:100078008A95E9F780E094E0A0E6ED930197E9F727
:10008800EAE5F0E085919591009761F0A591B59129
:1000980005901590BF01F00105900D920197E1F7C9
:1000A800FB01F0CFEFE5EDBFE4E0EEBFC0E6D1E045
:1000B8000C945E00E0E0EABBEBBBE7BBE8BBE4BB4B
:1000C800E5BBE1BBE2BBE3BFE2BFECBFEFBDEEBD0A
:1000D800EDBDECBDE7BDE6BDEBBDEABDE9BDE8BDE4
:1000E800E2BDE5BDE4BDE3BDE9BFE5BFE4BFEAB9F4
:1000F800E0E8E8B9E0E0E0BFE6B9EDB9E6BFA4E1C1
:1001080094D0B09917C066247724E4E1F0E06E1625
:100118007F0684F444245524E2E0F0E04E165F069E
:100128002CF4AED0F20131962F01F6CFF3013496BC
:100138003F01EBCFB09B17C044245524E2E0F0E028
:100148004E165F0684F466247724E4E1F0E06E1628
:100158007F062CF495D0F30134963F01F6CFF201D7
:1001680031962F01EBCF2FD0CCCFFFCFAA93EBB393
:10017800EF70AE2FE881E07FEA2BEBBB8DE08A952C
:10018800F1F7DA9A8DE08A95F1F7DA988DE08A9599
:10019800F1F774C0AA93A881E9DFE881E295E883C2
:1001A800A881E4DF85E88A95F1F768C0AA93E88119
:1001B800F0E0E05AFE4FE081A981AE0FEBDF9980B5
:1001C800888022960895A2E065D0ACE0E3DFA1E044
:1001D80061D0E0E08E2E9E2E0895AA93A881AA30C1
:1001E80011F09B1448F0E0E0EA938394A82DDEDF39
:1001F800A881AA3009F442C09394D89AA881CADF8A
:10020800D8983CC0BA93AA931A93E981FA81319697
:10021800E983FA833197E4911E2FE03019F0A12F7A
:10022800DCDFF3CF188123960895AA93EAB3E06F31
:10023800EABBD29AD09AD19ADA98D898D998B88045
:10024800E881E058E0936201E881E054E0936301BB
:10025800A4E1B0E00E945A0122D021D020D0A0E22F
:1002680085DF88EC90E00197F1F7A8E293DFA4E03E
:1002780091DFA5E88FDFA6E08DDFA5DF2196089541
:100288006A92A42D93DFA4E5B0E0BCDFA4E6B0E059
:100298000C945A017FDFA3E0B0E00C945A01A0E36C
:1002A80065DF88EC90E00197F1F70895109639F032
:1002B80080ED97E00197F1F7A8951197C9F7089590
:00000001FF
