:0C0000000C944B000C9400000C940000C9
:10000C000C9400000C9400000C9400000C94000064
:10001C000C9400000C9400000C9400000C94000054
:10002C000C9400000C9400000C9400000C94000044
:10003C000C9400000C9400000C9400000C94000034
:10004C000C9400000C9400000000111F0A04000026
:10005C000100020408100000040A0017141C000020
:10006C00010204041C000000000001011F000A0032
:10007C00000808080808000000040011111F000007
:10008C0080C0020060018C000000F894EE27ECBBED
:10009C00F1E0FBBFEBBFE5BF8DE0A2E0BB27ED932A
:1000AC008A95E9F780E094E0A0E6ED930197E9F7F3
:1000BC00EEE8F0E085919591009761F0A591B591EE
:1000CC0005901590BF01F00105900D920197E1F795
:1000DC00FB01F0CFEFE5EDBFE4E0EEBFC0E6D1E011
:1000EC000C949400AA931A930A93EA81EE0FEE0FE4
:1000FC00EE0FE0640E2F10E0183060F40A930395B5
:10010C00EC81FD813196EC83FD833197A4918CD0E9
:10011C001F5FF2CF1981088125960895EFE0EABBA5
:10012C00E0E7EBBBE0E0E7BBE8BBE4BBE5BBE1BB76
:10013C00E2BBE3BFE2BFECBFEFBDEEBDEDBDECBD7E
:10014C00E7BDE6BDEBBDEABDE9BDE8BDE2BDE5BD81
:10015C00E4BDE3BDE9BFE5BFE4BFEAB9E0E8E8B957
:10016C00E0E0E0BFE6B9EDB9E6BFA8E090D0E4E589
:10017C00F0E0FA93EA93A0E0B5DFECE5F0E0FA9357
:10018C00EA93A1E0AFDFE4E6F0E0FA93EA93A2E0B1
:10019C00A9DFECE6F0E0FA93EA93A3E0A3DFE4E74F
:1001AC00F0E0FA93EA93A4E09DDFECE7F0E0FA9339
:1001BC00EA93A5E097DFE4E8F0E0FA93EA93A6E08F
:1001CC0091DFE0E0EA93A0E037D0E6E0F0E02F0129
:1001DC0000244014500434F0A42D45D0F201319782
:1001EC002F01F6CFFFCFFFCFAA93EBB3EF70AE2F5B
:1001FC00E881E07FEA2BEBBB8DE08A95F1F7DA9A88
:10020C008DE08A95F1F7DA988DE08A95F1F768C060
:10021C00AA93A881E9DFE881E295E883A881E4DF6D
:10022C0085E88A95F1F75CC0AA93A981F1DFD89A89
:10023C00A881EEDFD8980BC0AA93E881F0E0E05AD1
:10024C00FE4FE081A981AE0FE3DFB980A880229632
:10025C000895A2E047D0ACE0DBDFA1E043D0E0E0C2
:10026C00AE2EBE2E0895AA93A881AA3011F0BD140B
:10027C0040F0E0E0EA93A394AA2DDEDFA881AA3037
:10028C0079F1B394D89AA881C3DFD89829C0AA93DE
:10029C00EAB3E06FEABBD29AD09AD19ADA98D8989E
:1002AC00D998D880E881E058E0936201E881E05465
:1002BC00E0936301A4E1B0E00E94840118D017D050
:1002CC0016D0A0E291DF88EC90E00197F1F7A8E25C
:1002DC009FDFA4E09DDFA5E89BDFA6E099DFB9DFF7
:1002EC002196089595DFA3E0B0E00C948401A0E37F
:1002FC007BDF88EC90E00197F1F70895109639F0C8
:10030C0080ED97E00197F1F7A8951197C9F708953B
:00000001FF
