:0A0000000C942F000C9400000C94E7
:10000A0000000C9400000C9400000C9400000C9466
:10001A0000000C9400000C9400000C9400000C9456
:10002A0000000C9400000C9400000C9400000C9446
:10003A0000000C9400000C9400000C9400000C9436
:10004A0000000C9400000C94000080C002006001C3
:10005A0054000000F894EE27ECBBF1E0FBBFEBBFC5
:10006A00E5BF8DE0A2E0BB27ED938A95E9F780E032
:10007A0094E0A0E6ED930197E9F7E6E5F0E08591D3
:10008A009591009761F0A591B59105901590BF01E2
:10009A00F00105900D920197E1F7FB01F0CFEFE532
:1000AA00EDBFE4E0EEBFC0E6D1E00C945C00EFE007
:1000BA00EABBE0E7EBBBEFE0E7BBE0E7E8BBE0E089
:1000CA00E4BBE5BBE1BBE2BBE3BFE2BFECBFEFBD14
:1000DA00EEBDEDBDECBDE7BDE6BDEBBDEABDE9BDDC
:1000EA00E8BDE2BDE5BDE4BDE3BDE9BFE5BFE4BFF0
:1000FA00EAB9E0E8E8B9E0E0E0BFE6B9EDB9E6BFA1
:10010A00A4E11BD144245524C098C19AC29AC39A27
:10011A00B59910C0B59903C03BD1E1E63CD1B59978
:10012A0003C036D1E2E637D1B59903C031D1E3E64F
:10013A0032D138D1C098C19AC29AC39AB69910C01E
:10014A00B69903C025D1E4E626D1B69903C020D1D9
:10015A00E5E621D1B69903C01BD1E6E61CD122D12E
:10016A00C09AC198C29AC39AB49910C0B49903C0EC
:10017A000FD1E7E610D1B49903C00AD1E8E60BD152
:10018A00B49903C005D1E9E606D10CD1B59910C0DE
:10019A00B59903C0FDD0EAE6FED0B59903C0F8D000
:1001AA00EBE6F9D0B59903C0F3D0ECE6F4D0FAD077
:1001BA00B69910C0B69903C0EBD0EDE6ECD0B6996B
:1001CA0003C0E6D0EEE6E7D0B69903C0E1D0EFE689
:1001DA00E2D0E8D0C09AC19AC298C39AB49915C01D
:1001EA00B49903C0D5D0E0E7D6D0B49903C0D0D033
:1001FA00E1E7D1D0B49903C0CBD0E2E7CCD0B4992F
:10020A0003C0C6D0E3E7C7D0CDD0B59910C0B59921
:10021A0003C0BED0E4E7BFD0B59903C0B9D0E5E7C3
:10022A00BAD0B59903C0B4D0E6E7B5D0BBD0B69979
:10023A0015C0B69903C0ACD0E7E7ADD0B69903C0F4
:10024A00A7D0E8E7A8D0B69903C0A2D0E9E7A3D01F
:10025A00B69903C09DD0EAE79ED0A4D0C09AC19AAD
:10026A00C29AC398B49914C0B4990BC0E42DE15052
:10027A00EA93A0E037D0A0E04CD0A2E3B0E00E941D
:10028A00EB01A4E6B0E00E94EB01F20131972F01E5
:10029A00B59906C0B59903C07BD0E0E27CD082D084
:1002AA0033CFFFCFAA93EBB3EF70AE2FE881E07F95
:1002BA00EA2BEBBB8DE08A95F1F7DA9A8DE08A9505
:1002CA00F1F7DA988DE08A95F1F760C0AA93A881D0
:1002DA00E9DFE881E295E883A881E4DF85E88A9589
:1002EA00F1F754C0AA93E881F0E0E05AFE4FE081AA
:1002FA00A981AE0FEBDF6980988022960895A2E06B
:10030A0059D0ACE0E3DFA1E055D0E0E09E2E6E2E9E
:10031A000895AA93A881AA3011F0681440F0E0E089
:10032A00EA939394A92DDEDFA881AA3079F1639428
:10033A00D89AA881CBDFD89829C0AA93EAB3E06FEC
:10034A00EABBD29AD09AD19ADA98D898D998888062
:10035A00E881E058E0936201E881E054E0936301A8
:10036A00A4E1B0E00E94EB012AD029D028D0A0E273
:10037A0099DF88EC90E00197F1F7A8E2A7DFA4E003
:10038A00A5DFA5E8A3DFA6E0A1DFB9DF21960895DE
:10039A004A92A0E0A7CF7E2EA72DBBDFA2E3B0E052
:1003AA000C94EB01A4E6B0E00E94EB01F201319655
:1003BA002F0108958BDFA3E0B0E00C94EB01A0E3DA
:1003CA0071DF88EC90E00197F1F70895109639F003
:1003DA0080ED97E00197F1F7A8951197C9F708956D
:00000001FF
