:0A0000000C944F000C9400000C94C7
:10000A0000000C9400000C9400000C9400000C9466
:10001A0000000C9400000C9400000C9400000C9456
:10002A0000000C9400000C9400000C9400000C9446
:10003A0000000C9400000C9400000C9400000C9436
:10004A0000000C9400000C94000000000000000066
:10005A0000001F000000000000001F1F0000000039
:10006A0000001F1F1F00000000001F1F1F1F0000AD
:10007A0000001F1F1F1F1F0000001F1F1F1F1F1F21
:10008A0000001F1F1F1F1F1F1F1F80C002006001CB
:10009A0094000000F894EE27ECBBF1E0FBBFEBBF45
:1000AA00E5BF8DE0A2E0BB27ED938A95E9F780E0F2
:1000BA0094E0A0E6ED930197E9F7E6E9F0E085918F
:1000CA009591009761F0A591B59105901590BF01A2
:1000DA00F00105900D920197E1F7FB01F0CFEFE5F2
:1000EA00EDBFE4E0EEBFC0E6D1E00C949800AA931D
:1000FA001A930A93EA81EE0FEE0FEE0FE0640E2FC9
:10010A0010E0183060F40A930395EC81FD81319672
:10011A00EC83FD833197A491D4D01F5FF2CF19816C
:10012A00088125960895EFE0EABBE0E7EBBBE0E043
:10013A00E7BBE8BBE4BBE5BBE1BBE2BBE3BFE2BFB5
:10014A00ECBFEFBDEEBDEDBDECBDE7BDE6BDEBBD61
:10015A00EABDE9BDE8BDE2BDE5BDE4BDE3BDE9BF79
:10016A00E5BFE4BFEAB9E0E8E8B9E0E0E0BFE6B934
:10017A00EDB9E6BFA4E1DAD0E4E5F0E0FA93EA9358
:10018A00A0E0B5DFECE5F0E0FA93EA93A1E0AFDF97
:10019A00E4E6F0E0FA93EA93A2E0A9DFECE6F0E005
:1001AA00FA93EA93A3E0A3DFE4E7F0E0FA93EA9391
:1001BA00A4E09DDFECE7F0E0FA93EA93A5E097DF8D
:1001CA00E4E8F0E0FA93EA93A6E091DFECE8F0E0E5
:1001DA00FA93EA93A7E08BDFB19903C0E2E3F0E078
:1001EA005F01B19B03C0E9E1F0E05F01B09B22C06F
:1001FA0044245524E4E1F0E04E165F06DCF466245C
:10020A007724E2E0F0E06E167F0684F488249924CD
:10021A00E8E0F0E08E169F062CF4B4D0F401319693
:10022A004F01F6CFF30131963F01EBCFF201319640
:10023A002F01E0CFB09923C0E3E1F0E02F01EFEF07
:10024A00FFEFE415F505DCF466247724E2E0F0E03C
:10025A006E167F0684F488249924E8E0F0E08E166E
:10026A009F062CF48FD0F40131964F01F6CFF3019B
:10027A0031963F01EBCFF20131972F01E0CFACCF9E
:10028A00FFCFAA93EBB3EF70AE2FE881E07FEA2BA2
:10029A00EBBB8DE08A95F1F7DA9A8DE08A95F1F752
:1002AA00DA988DE08A95F1F76BC0AA93A881E9DF05
:1002BA00E881E295E883A881E4DF85E88A95F1F789
:1002CA005FC0AA93A981F1DFD89AA881EEDFD898F6
:1002DA000BC0AA93E881F0E0E05AFE4FE081A981C1
:1002EA00AE0FE3DFD980C88022960895A2E052D0EB
:1002FA00ACE0DBDFA1E04ED0E0E0CE2EDE2E0895AA
:10030A00AA93A881AA3021F0E0916401DE1640F098
:10031A00E0E0EA93C394AC2DDCDFA881AA3081F136
:10032A00D394D89AA881C1DFD8982AC0AA93EAB3ED
:10033A00E06FEABBD29AD09AD19ADA98D898D9982B
:10034A00E881E0936401E058E0936201E881E054B7
:10035A00E0936301A4E1B0E00E94DB0120D01FD04A
:10036A001ED0A0E28EDF88EC90E00197F1F7A8E2B8
:10037A009CDFA4E09ADFA5E898DFA6E096DFB6DF67
:10038A00219608954A92A62DA4DFA82DB9DFD5019A
:10039A000C94DB018ADFA3E0B0E00C94DB01A0E35C
:1003AA0070DF88EC90E00197F1F70895109639F024
:1003BA0080ED97E00197F1F7A8951197C9F708958D
:00000001FF
