:020000000C945E
:1000020044000C9400000C9400000C9400000C942A
:1000120000000C9400000C9400000C9400000C945E
:1000220000000C9400000C9400000C9400000C944E
:1000320000000C9400000C9400000C9400000C943E
:1000420000000C9400000C9400000C9400000C942E
:100052000000040A00151F000000000200051F0036
:10006200080000010303010000007765656B20733F
:100072007461727420646179203A000080C00200C9
:1000820060017E000000F894EE27ECBBF1E0FBBFBC
:10009200EBBFE5BF8DE0A2E0BB27ED938A95E9F7C0
:1000A20080E094E0A0E6ED930197E9F7E0E8F0E064
:1000B20085919591009761F0A591B5910590159064
:1000C200BF01F00105900D920197E1F7FB01F0CF1E
:1000D200EFE5EDBFE4E0EEBFC0E6D1E00C948D00A9
:1000E200AA931A930A93EA81EE0FEE0FEE0FE064E1
:1000F2000E2F10E0183060F40A930395EC81FD8115
:100102003196EC83FD833197A49172D01F5FF2CFB9
:100112001981088125960895EFE0EABBE0E7EBBB81
:10012200EFE0E7BBE0E7E8BBE0E0E4BBE5BBE1BB57
:10013200E2BBE3BFE2BFECBFEFBDEEBDEDBDECBD88
:10014200E7BDE6BDEBBDEABDE9BDE8BDE2BDE5BD8B
:10015200E4BDE3BDE9BFE5BFE4BFEAB9E0E8E8B961
:10016200E0E0E0BFE6B9EDB9E6BFA0E188D0E4E5A2
:10017200F0E0FA93EA93A0E0B3DFECE5F0E0FA9363
:10018200EA93A1E0ADDFE4E6F0E0FA93EA93A2E0BD
:10019200A7DFE0E0EA93A0E033D0ACE6B0E05CD0C9
:1001A200A2E045D0A1E043D0A0E041D0FFCFFFCFF5
:1001B200AA93EBB3EF70AE2FE881E07FEA2BEBBBA3
:1001C2008DE08A95F1F7DA9A8DE08A95F1F7DA985F
:1001D2008DE08A95F1F77CC0AA93A881E9DFE881D6
:1001E200E295E883A881E4DF85E88A95F1F770C09B
:1001F200AA93A981F1DFD89AA881EEDFD8980BC023
:10020200AA93E881F0E0E05AFE4FE081A981AE0FA7
:10021200E3DF5980488022960895A2E05BD0ACE0EB
:10022200DBDFA1E057D0E0E04E2E5E2E0895AA93C8
:10023200A881AA3011F0571448F0E0E0EA93439401
:10024200A42DDEDFA881AA3009F442C05394D89AC3
:10025200A881C2DFD8983CC0BA93AA931A93E981C5
:10026200FA813196E983FA833197E4911E2FE030C7
:1002720019F0A12FDCDFF3CF188123960895AA93FA
:10028200EAB3E06FEABBD29AD09AD19ADA98D898B8
:10029200D9987880E881E058E0936201E881E054DF
:1002A200E0936301A4E1B0E00E94770118D017D077
:1002B20016D0A0E27DDF88EC90E00197F1F7A8E28A
:1002C2008BDFA4E089DFA5E887DFA6E085DFA5DF75
:1002D2002196089581DFA3E0B0E00C947701A0E3BA
:1002E20067DF88EC90E00197F1F70895109639F0F6
:1002F20080ED97E00197F1F7A8951197C9F7089556
:00000001FF
