:100000000C944F000C9400000C9400000C94000021
:100010000C9400000C9400000C9400000C94000060
:100020000C9400000C9400000C9400000C94000050
:100030000C9400000C9400000C9400000C94000040
:100040000C9400000C9400000C9400000C94000030
:100050000C94000000000000000000001F000000E1
:10006000000000001F1F0000000000001F1F1F00F5
:10007000000000001F1F1F1F000000001F1F1F1F88
:100080001F0000001F1F1F1F1F1F00001F1F1F1F1B
:100090001F1F1F1F80C00200600194000000F89421
:1000A000EE27ECBBF1E0FBBFEBBFE5BF8DE0A2E0CC
:1000B000BB27ED938A95E9F780E094E0A0E6ED9305
:1000C0000197E9F7E6E9F0E085919591009761F0F5
:1000D000A591B59105901590BF01F00105900D9285
:1000E0000197E1F7FB01F0CFEFE5EDBFE4E0EEBFF4
:1000F000C0E6D1E00C949800AA931A930A93EA817F
:10010000EE0FEE0FEE0FE0640E2F10E0183060F4EB
:100110000A930395EC81FD813196EC83FD83319741
:10012000A491CDD01F5FF2CF198108812596089543
:10013000EFE0EABBE0E7EBBBE0E0E7BBE8BBE4BB3A
:10014000E5BBE1BBE2BBE3BFE2BFECBFEFBDEEBD91
:10015000EDBDECBDE7BDE6BDEBBDEABDE9BDE8BD6B
:10016000E2BDE5BDE4BDE3BDE9BFE5BFE4BFEAB97B
:10017000E0E8E8B9E0E0E0BFE6B9EDB9E6BFA4E148
:10018000D1D0E4E5F0E0FA93EA93A0E0B5DFECE546
:10019000F0E0FA93EA93A1E0AFDFE4E6F0E0FA934F
:1001A000EA93A2E0A9DFECE6F0E0FA93EA93A3E099
:1001B000A3DFE4E7F0E0FA93EA93A4E09DDFECE745
:1001C000F0E0FA93EA93A5E097DFE4E8F0E0FA9331
:1001D000EA93A6E091DFECE8F0E0FA93EA93A7E077
:1001E0008BDF88249924E1E0F0E0E815F905FCF0C4
:1001F00066247724E7E0F0E0E615F705A4F0442450
:100200005524E3E1F0E0E415F5052CF0B6D0F20159
:1002100031962F01F6CFA2E3B0E00E94CE01F301A8
:1002200031963F01E7CFF40131964F01DCCFE1E099
:10023000F0E04F01002480149004FCF0E7E0F0E0CF
:100240003F01002460147004A4F0E3E1F0E02F010A
:100250000024401450042CF090D0F20131972F016B
:10026000F7CFA2E3B0E00E94CE01F30131973F0146
:10027000E8CFF40131974F01DDCFB3CFFFCFAA9381
:10028000EBB3EF70AE2FE881E07FEA2BEBBB8DE0A4
:100290008A95F1F7DA9A8DE08A95F1F7DA988DE090
:1002A0008A95F1F768C0AA93A881E9DFE881E29511
:1002B000E883A881E4DF85E88A95F1F75CC0AA931A
:1002C000A981F1DFD89AA881EEDFD8980BC0AA9354
:1002D000E881F0E0E05AFE4FE081A981AE0FE3DF54
:1002E000B980A88022960895A2E04CD0ACE0DBDF74
:1002F000A1E048D0E0E0AE2EBE2E0895AA93A881DA
:10030000AA3011F0BD1440F0E0E0EA93A394AA2DC6
:10031000DEDFA881AA3079F1B394D89AA881C3DF2F
:10032000D89829C0AA93EAB3E06FEABBD29AD09AD0
:10033000D19ADA98D898D998D880E881E058E09393
:100340006201E881E054E0936301A4E1B0E00E941F
:10035000CE011DD01CD01BD0A0E291DF88EC90E034
:100360000197F1F7A8E29FDFA4E09DDFA5E89BDFFE
:10037000A6E099DFB9DF219608954A92A82DA7DF5C
:10038000A62DBCCF90DFA3E0B0E00C94CE01A0E39B
:1003900076DF88EC90E00197F1F70895109639F038
:1003A00080ED97E00197F1F7A8951197C9F70895A7
:00000001FF
